:100000000C9458000C9480000C9480000C94800098
:100010000C9480000C9480000C9480000C94800060
:100020000C9480000C9480000C9480000C94800050
:100030000C9480000C9480000C9480000C94800040
:100040000C94D0020C9480000C949E020C947802C4
:100050000C9480000C9480000C9480000C94800020
:100060000C9480000C948000000000002300260007
:10007000290004040404040404040202020202022B
:10008000030303030303010204081020408001025C
:1000900004081020010204081020000000080002DB
:1000A00001000003040700000000000000001A0324
:1000B00011241FBECFEFD8E0DEBFCDBF11E0A0E01E
:1000C000B1E0EEEEF8E002C005900D92A231B1076A
:1000D000D9F722E0A2E1B1E001C01D92AA38B2072F
:1000E000E1F710E0C8E5D0E004C02197FE010E94CE
:1000F0006F04C735D107C9F70E94B4030C94750487
:100100000C940000AF92BF92CF92DF92EF92FF92D9
:100110000F931F93CF93DF936C017B018B01040F2F
:10012000151FEB015E01AE18BF08C017D10759F0CB
:100130006991D601ED91FC910190F081E02DC6010D
:100140000995892B79F7C501DF91CF911F910F9107
:10015000FF90EF90DF90CF90BF90AF900895FC019B
:10016000538D448D252F30E0842F90E0821B930B1C
:10017000541710F0CF96089501970895FC01918DC2
:10018000828D981761F0A28DAE0FBF2FB11D5D96C5
:100190008C91928D9F5F9F73928F90E008958FEF67
:1001A0009FEF0895FC01918D828D981731F0828D1B
:1001B000E80FF11D858D90E008958FEF9FEF089572
:1001C000FC01918D228D892F90E0805C9F4F821BD6
:1001D00091098F73992708958BEE91E00E94E000BA
:1001E00021E0892B09F420E0822F089580E090E03F
:1001F000892B29F00E94EC0081110C9400000895D5
:10020000FC01A48DA80FB92FB11DA35ABF4F2C918B
:10021000848D90E001968F739927848FA689B78982
:100220002C93A089B1898C91837080648C93938D79
:10023000848D981306C00288F389E02D80818F7D1C
:1002400080830895EF92FF920F931F93CF93DF93D4
:10025000EC0181E0888F9B8D8C8D98131AC0E88902
:10026000F989808185FF15C09FB7F894EE89FF89D1
:100270006083E889F98980818370806480839FBF6F
:1002800081E090E0DF91CF911F910F91FF90EF906F
:100290000895F62E0B8D10E00F5F1F4F0F7311277F
:1002A000E02E8C8D8E110CC00FB607FCFACFE889BA
:1002B000F989808185FFF5CFCE010E940001F1CF41
:1002C000EB8DEC0FFD2FF11DE35AFF4FF0829FB72E
:1002D000F8940B8FEA89FB8980818062CFCFCF931E
:1002E000DF93EC01888D8823B9F0AA89BB89E8895E
:1002F000F9898C9185FD03C0808186FD0DC00FB604
:1003000007FCF7CF8C9185FFF2CF808185FFEDCF81
:10031000CE010E940001E9CFDF91CF91089590E0D6
:10032000FC01E656FF4F2491FC01EA57FF4F349140
:10033000FC01EE58FF4FE491EE23C1F1222339F086
:100340002330E9F090F4213001F1223011F1F0E096
:10035000EE0FFF1FE859FF4FA591B491EC91E323F5
:1003600081E090E029F580E008952730A9F0283059
:10037000C9F0243061F7809180008F7D03C08091A7
:1003800080008F7780938000E2CF84B58F7784BD23
:10039000DECF84B58F7DFBCF8091B0008F778093C7
:1003A000B000D5CF8091B0008F7DF9CF80E090E094
:1003B00008958E3008F08E508770806480937C00A2
:1003C00080917A00806480937A0080917A0086FD23
:1003D000FCCF80917800909179000895DC018D9197
:1003E0009C91DC01ED91FC910190F081E02D09944C
:1003F000CF93DF9321502031E0F4C42FD62F682F04
:10040000622B80914501909146010E94EE016D2F73
:100410006F7780914501909146010E94EE016C2F0B
:100420006F778091450190914601DF91CF910C94B7
:10043000EE01DF91CF910895242F462F682F80EB96
:100440000C94F801CF93DF93EC018A8980FF17C0E9
:100450008A8981FF1DC08D7F81608A8B2FB7F894B8
:100460008091170190911801A0911901B0911A0182
:100470002FBF8E839F83A887B9878FEF36C08C8567
:100480000E948F012B892817190611F782E02DC0D1
:100490008FB7F8944091170150911801609119019C
:1004A00070911A018FBF8E819F81A885B985481BE5
:1004B000590B6A0B7B0B8A859B85092E000CAA0BB6
:1004C000BB0B481759076A077B07B8F28C850E9457
:1004D0008F012B893A893E7F32603A8B28171906A3
:1004E00061F2822F809581708B8BDF91CF9108957F
:1004F0001F920F920FB60F9211242F933F934F9399
:100500005F936F937F938F939F93AF93BF93EF937B
:10051000FF938BEE91E00E940001FF91EF91BF915C
:10052000AF919F918F917F916F915F914F913F918B
:100530002F910F900FBE0F901F9018951F920F9242
:100540000FB60F9211242F938F939F93EF93FF93E6
:10055000E091FB01F091FC018081E0910102F091BA
:10056000020282FD1BC09081809104028F5F8F7315
:1005700020910502821741F0E0910402F0E0E5517C
:10058000FE4F958F80930402FF91EF919F918F9181
:100590002F910F900FBE0F901F9018958081F4CF70
:1005A0001F920F920FB60F9211242F933F938F93A8
:1005B0009F93AF93BF938091170190911801A091E1
:1005C0001901B0911A013091160123E0230F2D3744
:1005D00058F50196A11DB11D2093160180931701B6
:1005E00090931801A0931901B0931A018091120100
:1005F00090911301A0911401B09115010196A11DD4
:10060000B11D8093120190931301A0931401B09334
:100610001501BF91AF919F918F913F912F910F90B5
:100620000FBE0F901F90189526E8230F0296A11D6C
:10063000B11DD2CFEBEEF1E01382128288EE93E08F
:10064000A0E0B0E084839583A683B78384E091E043
:100650009183808385EC90E09587848784EC90E09B
:100660009787868780EC90E0918B808B81EC90E07F
:10067000938B828B82EC90E0958B848B86EC90E060
:10068000978B868B118E128E138E148EF0938902A7
:10069000E0938802EBE1F1E0118210821382128272
:1006A000158214821782168211861086138612868E
:1006B0001586148617861686118A108A138A128A5E
:1006C000158A148A178A168A118E108E138E128E2E
:1006D000158E148E178E168E11A210A213A212A2BE
:1006E00015A214A217A216A211A610A688E892E0DD
:1006F00093A782A714A615A616A613AA12AA15AA2E
:1007000014AA8FEF9FEF97AB86AB91AF80AF83E0DA
:100710008093550113AE14AE15AE16AE1092DA01E9
:10072000EAE5F1E080E8DF011D928A95E9F7109291
:10073000DD011092DE011092DF011092E0011092B3
:10074000E1011092E2011092E3011092E401109293
:10075000E5011092E6011092E7011092E801109273
:10076000E9011092EA010895789484B5826084BD0D
:1007700084B5816084BD85B5826085BD85B58160A5
:1007800085BD80916E00816080936E001092810023
:1007900080918100826080938100809181008160DE
:1007A000809381008091800081608093800080919F
:1007B000B10084608093B1008091B000816080932B
:1007C000B00080917A00846080937A0080917A00F2
:1007D000826080937A0080917A00816080937A00B1
:1007E00080917A00806880937A001092C100E09135
:1007F0004501F09146010190F081E02DA089B18979
:1008000082E08C93A485B5851C92A685B7858FE37D
:100810008C93108EA489B58986E08C93A289B389C4
:100820008C9180618C93A289B3898C9188608C9320
:10083000A289B3898C9180688C930288F389E02D1A
:1008400080818F7D808381E18093470110924901EF
:10085000109248011092500110924F0110924E01D7
:1008600010924D018FEF9FEF9093520180935101B1
:1008700090935401809353012FB7F89480911701FE
:1008800090911801A0911901B0911A012FBF809386
:10089000DD019093DE01A093DF01B093E00110929F
:1008A000DA011092570110925601109258011092DD
:1008B00059011092DC011092DB0180915501817089
:1008C0008260816080935501C0E0D0E02097F1F311
:1008D0000E94EC008823D1F30E940000F7CFEE0FB6
:0E08E000FF1F0590F491E02D0994F894FFCFCE
:1008EE000000000022018200AF006F01E000BE0098
:0208FE00D20026
:00000001FF
